{
  "_format": "hh-sol-artifact-1",
  "contractName": "Lottery",
  "sourceName": "contracts/Lottery.sol",
  "abi": [
    {
      "inputs": [],
      "stateMutability": "nonpayable",
      "type": "constructor"
    },
    {
      "anonymous": false,
      "inputs": [
        {
          "indexed": false,
          "internalType": "address",
          "name": "player",
          "type": "address"
        }
      ],
      "name": "TicketBought",
      "type": "event"
    },
    {
      "anonymous": false,
      "inputs": [
        {
          "indexed": false,
          "internalType": "address payable",
          "name": "winner",
          "type": "address"
        }
      ],
      "name": "WinnerPicked",
      "type": "event"
    },
    {
      "inputs": [],
      "name": "enter",
      "outputs": [],
      "stateMutability": "payable",
      "type": "function"
    },
    {
      "inputs": [],
      "name": "entryFees",
      "outputs": [
        {
          "internalType": "uint256",
          "name": "",
          "type": "uint256"
        }
      ],
      "stateMutability": "view",
      "type": "function"
    },
    {
      "inputs": [],
      "name": "getBalance",
      "outputs": [
        {
          "internalType": "uint256",
          "name": "",
          "type": "uint256"
        }
      ],
      "stateMutability": "view",
      "type": "function"
    },
    {
      "inputs": [],
      "name": "getLastWinner",
      "outputs": [
        {
          "internalType": "address",
          "name": "",
          "type": "address"
        }
      ],
      "stateMutability": "view",
      "type": "function"
    },
    {
      "inputs": [],
      "name": "getParticipants",
      "outputs": [
        {
          "internalType": "address payable[]",
          "name": "",
          "type": "address[]"
        }
      ],
      "stateMutability": "view",
      "type": "function"
    },
    {
      "inputs": [],
      "name": "lotteryId",
      "outputs": [
        {
          "internalType": "uint256",
          "name": "",
          "type": "uint256"
        }
      ],
      "stateMutability": "view",
      "type": "function"
    },
    {
      "inputs": [],
      "name": "owner",
      "outputs": [
        {
          "internalType": "address",
          "name": "",
          "type": "address"
        }
      ],
      "stateMutability": "view",
      "type": "function"
    },
    {
      "inputs": [],
      "name": "pickWinner",
      "outputs": [],
      "stateMutability": "payable",
      "type": "function"
    }
  ],
  "bytecode": "0x608060405234801561001057600080fd5b5033600260006101000a81548173ffffffffffffffffffffffffffffffffffffffff021916908373ffffffffffffffffffffffffffffffffffffffff1602179055506000808190555066038d7ea4c68000600181905550610d7e806100766000396000f3fe60806040526004361061007b5760003560e01c8063b3182ba51161004e578063b3182ba51461010b578063e580f47b14610136578063e97dcb6214610161578063f88649a11461016b5761007b565b806312065fe0146100805780635aa68ac0146100ab5780635d495aea146100d65780638da5cb5b146100e0575b600080fd5b34801561008c57600080fd5b50610095610196565b6040516100a29190610841565b60405180910390f35b3480156100b757600080fd5b506100c06101f8565b6040516100cd919061094c565b60405180910390f35b6100de610286565b005b3480156100ec57600080fd5b506100f561050a565b604051610102919061098f565b60405180910390f35b34801561011757600080fd5b50610120610530565b60405161012d9190610841565b60405180910390f35b34801561014257600080fd5b5061014b610536565b6040516101589190610841565b60405180910390f35b61016961053c565b005b34801561017757600080fd5b5061018061061c565b60405161018d919061098f565b60405180910390f35b6000600260009054906101000a900473ffffffffffffffffffffffffffffffffffffffff1673ffffffffffffffffffffffffffffffffffffffff163373ffffffffffffffffffffffffffffffffffffffff16146101f257600080fd5b47905090565b6060600380548060200260200160405190810160405280929190818152602001828054801561027c57602002820191906000526020600020905b8160009054906101000a900473ffffffffffffffffffffffffffffffffffffffff1673ffffffffffffffffffffffffffffffffffffffff1681526020019060010190808311610232575b5050505050905090565b600260009054906101000a900473ffffffffffffffffffffffffffffffffffffffff1673ffffffffffffffffffffffffffffffffffffffff163373ffffffffffffffffffffffffffffffffffffffff16146102e057600080fd5b6000806003805490506102f16106b4565b6102fb91906109d9565b90506003818154811061031157610310610a0a565b5b9060005260206000200160009054906101000a900473ffffffffffffffffffffffffffffffffffffffff1691508173ffffffffffffffffffffffffffffffffffffffff166108fc610360610755565b9081150290604051600060405180830381858888f1935050505015801561038b573d6000803e3d6000fd5b506004829080600181540180825580915050600190039060005260206000200160009091909190916101000a81548173ffffffffffffffffffffffffffffffffffffffff021916908373ffffffffffffffffffffffffffffffffffffffff160217905550600260009054906101000a900473ffffffffffffffffffffffffffffffffffffffff1673ffffffffffffffffffffffffffffffffffffffff166108fc479081150290604051600060405180830381858888f19350505050158015610457573d6000803e3d6000fd5b5060008081548092919061046a90610a68565b9190505550600067ffffffffffffffff81111561048a57610489610ab0565b5b6040519080825280602002602001820160405280156104b85781602001602082028036833780820191505090505b50600390805190602001906104ce929190610781565b507f5b690ec4a06fe979403046eaeea5b3ce38524683c3001f662c8b5a829632f7df826040516104fe9190610aee565b60405180910390a15050565b600260009054906101000a900473ffffffffffffffffffffffffffffffffffffffff1681565b60015481565b60005481565b6001543414610580576040517f08c379a000000000000000000000000000000000000000000000000000000000815260040161057790610b8c565b60405180910390fd5b6003339080600181540180825580915050600190039060005260206000200160009091909190916101000a81548173ffffffffffffffffffffffffffffffffffffffff021916908373ffffffffffffffffffffffffffffffffffffffff1602179055507f22949fb111628ecd7b4062e944109804b256656bc00fc690af62b9a6105154d333604051610612919061098f565b60405180910390a1565b60008060005411610662576040517f08c379a000000000000000000000000000000000000000000000000000000000815260040161065990610bf8565b60405180910390fd5b600460016000546106739190610c18565b8154811061068457610683610a0a565b5b9060005260206000200160009054906101000a900473ffffffffffffffffffffffffffffffffffffffff16905090565b6000600260009054906101000a900473ffffffffffffffffffffffffffffffffffffffff1673ffffffffffffffffffffffffffffffffffffffff163373ffffffffffffffffffffffffffffffffffffffff161461071057600080fd5b60014361071d9190610c18565b404260038054905060405160200161073793929190610c98565b6040516020818303038152906040528051906020012060001c905090565b6000806064605a610764610196565b61076e9190610cd5565b6107789190610d17565b90508091505090565b8280548282559060005260206000209081019282156107fa579160200282015b828111156107f95782518260006101000a81548173ffffffffffffffffffffffffffffffffffffffff021916908373ffffffffffffffffffffffffffffffffffffffff160217905550916020019190600101906107a1565b5b509050610807919061080b565b5090565b5b8082111561082457600081600090555060010161080c565b5090565b6000819050919050565b61083b81610828565b82525050565b60006020820190506108566000830184610832565b92915050565b600081519050919050565b600082825260208201905092915050565b6000819050602082019050919050565b600073ffffffffffffffffffffffffffffffffffffffff82169050919050565b60006108b382610888565b9050919050565b6108c3816108a8565b82525050565b60006108d583836108ba565b60208301905092915050565b6000602082019050919050565b60006108f98261085c565b6109038185610867565b935061090e83610878565b8060005b8381101561093f57815161092688826108c9565b9750610931836108e1565b925050600181019050610912565b5085935050505092915050565b6000602082019050818103600083015261096681846108ee565b905092915050565b600061097982610888565b9050919050565b6109898161096e565b82525050565b60006020820190506109a46000830184610980565b92915050565b7f4e487b7100000000000000000000000000000000000000000000000000000000600052601260045260246000fd5b60006109e482610828565b91506109ef83610828565b9250826109ff576109fe6109aa565b5b828206905092915050565b7f4e487b7100000000000000000000000000000000000000000000000000000000600052603260045260246000fd5b7f4e487b7100000000000000000000000000000000000000000000000000000000600052601160045260246000fd5b6000610a7382610828565b91507fffffffffffffffffffffffffffffffffffffffffffffffffffffffffffffffff8203610aa557610aa4610a39565b5b600182019050919050565b7f4e487b7100000000000000000000000000000000000000000000000000000000600052604160045260246000fd5b610ae8816108a8565b82525050565b6000602082019050610b036000830184610adf565b92915050565b600082825260208201905092915050565b7f496e76616c696420616d6f756e742c2073656e642061746c6561737420302e3060008201527f3031206574686572000000000000000000000000000000000000000000000000602082015250565b6000610b76602883610b09565b9150610b8182610b1a565b604082019050919050565b60006020820190508181036000830152610ba581610b69565b9050919050565b7f4e6f206f6e652068617320776f6e20746865206c6f7474657279207965742100600082015250565b6000610be2601f83610b09565b9150610bed82610bac565b602082019050919050565b60006020820190508181036000830152610c1181610bd5565b9050919050565b6000610c2382610828565b9150610c2e83610828565b9250828203905081811115610c4657610c45610a39565b5b92915050565b6000819050919050565b6000819050919050565b610c71610c6c82610c4c565b610c56565b82525050565b6000819050919050565b610c92610c8d82610828565b610c77565b82525050565b6000610ca48286610c60565b602082019150610cb48285610c81565b602082019150610cc48284610c81565b602082019150819050949350505050565b6000610ce082610828565b9150610ceb83610828565b9250828202610cf981610828565b91508282048414831517610d1057610d0f610a39565b5b5092915050565b6000610d2282610828565b9150610d2d83610828565b925082610d3d57610d3c6109aa565b5b82820490509291505056fea26469706673582212204fe0d2cc8edc95858b2662ed0304867172b57715f051a6b1b80260742490d20364736f6c63430008110033",
  "linkReferences": {},
  "deployedLinkReferences": {}
}